{
  "_format": "hh-sol-artifact-1",
  "contractName": "ProjectFactory",
  "sourceName": "contracts/ProjectFactory.sol",
  "abi": [
    {
      "anonymous": false,
      "inputs": [
        {
          "indexed": false,
          "internalType": "address",
          "name": "projectAddress",
          "type": "address"
        }
      ],
      "name": "CreatedProject",
      "type": "event"
    },
    {
      "inputs": [],
      "name": "getDeployedProject",
      "outputs": [
        {
          "internalType": "address[]",
          "name": "",
          "type": "address[]"
        },
        {
          "internalType": "string[]",
          "name": "",
          "type": "string[]"
        }
      ],
      "stateMutability": "view",
      "type": "function"
    },
    {
      "inputs": [
        {
          "internalType": "uint256",
          "name": "minimum",
          "type": "uint256"
        },
        {
          "internalType": "string",
          "name": "details",
          "type": "string"
        },
        {
          "internalType": "string",
          "name": "name",
          "type": "string"
        }
      ],
      "name": "newProject",
      "outputs": [
        {
          "internalType": "address",
          "name": "",
          "type": "address"
        }
      ],
      "stateMutability": "payable",
      "type": "function"
    },
    {
      "inputs": [
        {
          "internalType": "uint256",
          "name": "",
          "type": "uint256"
        }
      ],
      "name": "projectAddress",
      "outputs": [
        {
          "internalType": "address",
          "name": "",
          "type": "address"
        }
      ],
      "stateMutability": "view",
      "type": "function"
    },
    {
      "inputs": [
        {
          "internalType": "uint256",
          "name": "",
          "type": "uint256"
        }
      ],
      "name": "projectName",
      "outputs": [
        {
          "internalType": "string",
          "name": "",
          "type": "string"
        }
      ],
      "stateMutability": "view",
      "type": "function"
    }
  ],
  "bytecode": "0x608060405234801561001057600080fd5b5061288f806100206000396000f3fe608060405260043610620000445760003560e01c806315d0c85a14620000495780631d3e78af146200007f578063a828477c14620000c3578063fd91f3441462000107575b600080fd5b62000067600480360381019062000061919062000651565b62000138565b604051620000769190620008bb565b60405180910390f35b3480156200008c57600080fd5b50620000ab6004803603810190620000a591906200061f565b62000261565b604051620000ba9190620008bb565b60405180910390f35b348015620000d057600080fd5b50620000ef6004803603810190620000e991906200061f565b620002a1565b604051620000fe919062000913565b60405180910390f35b3480156200011457600080fd5b506200011f62000356565b6040516200012f929190620008d8565b60405180910390f35b600080848484336040516200014d90620004cc565b6200015c949392919062000937565b604051809103906000f08015801562000179573d6000803e3d6000fd5b5090506000819080600181540180825580915050600190039060005260206000200160009091909190916101000a81548173ffffffffffffffffffffffffffffffffffffffff021916908373ffffffffffffffffffffffffffffffffffffffff1602179055506001839080600181540180825580915050600190039060005260206000200160009091909190915090805190602001906200021c929190620004da565b507f49990b7ced939700389078f342a0053e2b1142014606f84d3d56f5362b174771816040516200024e9190620008bb565b60405180910390a1809150509392505050565b600081815481106200027257600080fd5b906000526020600020016000915054906101000a900473ffffffffffffffffffffffffffffffffffffffff1681565b60018181548110620002b257600080fd5b906000526020600020016000915090508054620002cf9062000b13565b80601f0160208091040260200160405190810160405280929190818152602001828054620002fd9062000b13565b80156200034e5780601f1062000322576101008083540402835291602001916200034e565b820191906000526020600020905b8154815290600101906020018083116200033057829003601f168201915b505050505081565b6060806000600181805480602002602001604051908101604052809291908181526020018280548015620003e057602002820191906000526020600020905b8160009054906101000a900473ffffffffffffffffffffffffffffffffffffffff1673ffffffffffffffffffffffffffffffffffffffff168152602001906001019080831162000395575b5050505050915080805480602002602001604051908101604052809291908181526020016000905b82821015620004be5783829060005260206000200180546200042a9062000b13565b80601f0160208091040260200160405190810160405280929190818152602001828054620004589062000b13565b8015620004a95780601f106200047d57610100808354040283529160200191620004a9565b820191906000526020600020905b8154815290600101906020018083116200048b57829003601f168201915b50505050508152602001906001019062000408565b505050509050915091509091565b611c3d8062000c1d83390190565b828054620004e89062000b13565b90600052602060002090601f0160209004810192826200050c576000855562000558565b82601f106200052757805160ff191683800117855562000558565b8280016001018555821562000558579182015b82811115620005575782518255916020019190600101906200053a565b5b5090506200056791906200056b565b5090565b5b80821115620005865760008160009055506001016200056c565b5090565b6000620005a16200059b84620009bb565b62000992565b905082815260208101848484011115620005c057620005bf62000be2565b5b620005cd84828562000ace565b509392505050565b600082601f830112620005ed57620005ec62000bdd565b5b8135620005ff8482602086016200058a565b91505092915050565b600081359050620006198162000c02565b92915050565b60006020828403121562000638576200063762000bec565b5b6000620006488482850162000608565b91505092915050565b6000806000606084860312156200066d576200066c62000bec565b5b60006200067d8682870162000608565b935050602084013567ffffffffffffffff811115620006a157620006a062000be7565b5b620006af86828701620005d5565b925050604084013567ffffffffffffffff811115620006d357620006d262000be7565b5b620006e186828701620005d5565b9150509250925092565b6000620006f983836200071b565b60208301905092915050565b600062000713838362000828565b905092915050565b620007268162000a90565b82525050565b620007378162000a90565b82525050565b60006200074a8262000a11565b62000756818562000a4c565b93506200076383620009f1565b8060005b838110156200079a5781516200077e8882620006eb565b97506200078b8362000a32565b92505060018101905062000767565b5085935050505092915050565b6000620007b48262000a1c565b620007c0818562000a5d565b935083602082028501620007d48562000a01565b8060005b85811015620008165784840389528151620007f4858262000705565b9450620008018362000a3f565b925060208a01995050600181019050620007d8565b50829750879550505050505092915050565b6000620008358262000a27565b62000841818562000a6e565b93506200085381856020860162000add565b6200085e8162000bf1565b840191505092915050565b6000620008768262000a27565b62000882818562000a7f565b93506200089481856020860162000add565b6200089f8162000bf1565b840191505092915050565b620008b58162000ac4565b82525050565b6000602082019050620008d260008301846200072c565b92915050565b60006040820190508181036000830152620008f481856200073d565b905081810360208301526200090a8184620007a7565b90509392505050565b600060208201905081810360008301526200092f818462000869565b905092915050565b60006080820190506200094e6000830187620008aa565b818103602083015262000962818662000869565b9050818103604083015262000978818562000869565b90506200098960608301846200072c565b95945050505050565b60006200099e620009b1565b9050620009ac828262000b49565b919050565b6000604051905090565b600067ffffffffffffffff821115620009d957620009d862000bae565b5b620009e48262000bf1565b9050602081019050919050565b6000819050602082019050919050565b6000819050602082019050919050565b600081519050919050565b600081519050919050565b600081519050919050565b6000602082019050919050565b6000602082019050919050565b600082825260208201905092915050565b600082825260208201905092915050565b600082825260208201905092915050565b600082825260208201905092915050565b600062000a9d8262000aa4565b9050919050565b600073ffffffffffffffffffffffffffffffffffffffff82169050919050565b6000819050919050565b82818337600083830152505050565b60005b8381101562000afd57808201518184015260208101905062000ae0565b8381111562000b0d576000848401525b50505050565b6000600282049050600182168062000b2c57607f821691505b6020821081141562000b435762000b4262000b7f565b5b50919050565b62000b548262000bf1565b810181811067ffffffffffffffff8211171562000b765762000b7562000bae565b5b80604052505050565b7f4e487b7100000000000000000000000000000000000000000000000000000000600052602260045260246000fd5b7f4e487b7100000000000000000000000000000000000000000000000000000000600052604160045260246000fd5b600080fd5b600080fd5b600080fd5b600080fd5b6000601f19601f8301169050919050565b62000c0d8162000ac4565b811462000c1957600080fd5b5056fe608060405260405162001c3d38038062001c3d833981810160405281019062000029919062000208565b806000806101000a81548173ffffffffffffffffffffffffffffffffffffffff021916908373ffffffffffffffffffffffffffffffffffffffff16021790555083600181905550826003908051906020019062000088929190620000ac565b508160049080519060200190620000a1929190620000ac565b5050505050620004ae565b828054620000ba906200038b565b90600052602060002090601f016020900481019282620000de57600085556200012a565b82601f10620000f957805160ff19168380011785556200012a565b828001600101855582156200012a579182015b82811115620001295782518255916020019190600101906200010c565b5b5090506200013991906200013d565b5090565b5b80821115620001585760008160009055506001016200013e565b5090565b6000620001736200016d84620002e1565b620002b8565b9050828152602081018484840111156200019257620001916200045a565b5b6200019f84828562000355565b509392505050565b600081519050620001b8816200047a565b92915050565b600082601f830112620001d657620001d562000455565b5b8151620001e88482602086016200015c565b91505092915050565b600081519050620002028162000494565b92915050565b6000806000806080858703121562000225576200022462000464565b5b60006200023587828801620001f1565b945050602085015167ffffffffffffffff8111156200025957620002586200045f565b5b6200026787828801620001be565b935050604085015167ffffffffffffffff8111156200028b576200028a6200045f565b5b6200029987828801620001be565b9250506060620002ac87828801620001a7565b91505092959194509250565b6000620002c4620002d7565b9050620002d28282620003c1565b919050565b6000604051905090565b600067ffffffffffffffff821115620002ff57620002fe62000426565b5b6200030a8262000469565b9050602081019050919050565b600062000324826200032b565b9050919050565b600073ffffffffffffffffffffffffffffffffffffffff82169050919050565b6000819050919050565b60005b838110156200037557808201518184015260208101905062000358565b8381111562000385576000848401525b50505050565b60006002820490506001821680620003a457607f821691505b60208210811415620003bb57620003ba620003f7565b5b50919050565b620003cc8262000469565b810181811067ffffffffffffffff82111715620003ee57620003ed62000426565b5b80604052505050565b7f4e487b7100000000000000000000000000000000000000000000000000000000600052602260045260246000fd5b7f4e487b7100000000000000000000000000000000000000000000000000000000600052604160045260246000fd5b600080fd5b600080fd5b600080fd5b600080fd5b6000601f19601f8301169050919050565b620004858162000317565b81146200049157600080fd5b50565b6200049f816200034b565b8114620004ab57600080fd5b50565b61177f80620004be6000396000f3fe6080604052600436106100dd5760003560e01c8063aaffadf31161007f578063cc58b5ef11610059578063cc58b5ef14610269578063d7d1bbdb14610285578063e9f146a3146102a1578063f8929863146102cc576100dd565b8063aaffadf314610209578063b2b4752714610234578063b309a91a1461025f576100dd565b8063481c6a75116100bb578063481c6a751461015657806381d12c58146101815780638a9cfd55146101c25780639a33e300146101de576100dd565b806312065fe0146100e25780632accd1441461010d5780634051ddac14610138575b600080fd5b3480156100ee57600080fd5b506100f761030e565b604051610104919061138d565b60405180910390f35b34801561011957600080fd5b5061012261031b565b60405161012f9190611311565b60405180910390f35b6101406103a9565b60405161014d91906112ef565b60405180910390f35b34801561016257600080fd5b5061016b6107e9565b60405161017891906112d4565b60405180910390f35b34801561018d57600080fd5b506101a860048036038101906101a391906110d1565b61080d565b6040516101b9959493929190611333565b60405180910390f35b6101dc60048036038101906101d79190611062565b6108f8565b005b3480156101ea57600080fd5b506101f3610a0f565b6040516102009190611311565b60405180910390f35b34801561021557600080fd5b5061021e610a9d565b60405161022b919061138d565b60405180910390f35b34801561024057600080fd5b50610249610aa3565b604051610256919061138d565b60405180910390f35b610267610aad565b005b610283600480360381019061027e91906110d1565b610b2d565b005b61029f600480360381019061029a91906110d1565b610c65565b005b3480156102ad57600080fd5b506102b6610da3565b6040516102c3919061138d565b60405180910390f35b3480156102d857600080fd5b506102f360048036038101906102ee91906110d1565b610da9565b604051610305969594939291906113a8565b60405180910390f35b6000804790508091505090565b600380546103289061158e565b80601f01602080910402602001604051908101604052809291908181526020018280546103549061158e565b80156103a15780601f10610376576101008083540402835291602001916103a1565b820191906000526020600020905b81548152906001019060200180831161038457829003601f168201915b505050505081565b606060056040518060c00160405280600154815260200160025481526020016006548152602001600380546103dd9061158e565b80601f01602080910402602001604051908101604052809291908181526020018280546104099061158e565b80156104565780601f1061042b57610100808354040283529160200191610456565b820191906000526020600020905b81548152906001019060200180831161043957829003601f168201915b505050505081526020016004805461046d9061158e565b80601f01602080910402602001604051908101604052809291908181526020018280546104999061158e565b80156104e65780601f106104bb576101008083540402835291602001916104e6565b820191906000526020600020905b8154815290600101906020018083116104c957829003601f168201915b5050505050815260200160008054906101000a900473ffffffffffffffffffffffffffffffffffffffff1673ffffffffffffffffffffffffffffffffffffffff168152509080600181540180825580915050600190039060005260206000209060060201600090919091909150600082015181600001556020820151816001015560408201518160020155606082015181600301908051906020019061058d929190610f25565b5060808201518160040190805190602001906105aa929190610f25565b5060a08201518160050160006101000a81548173ffffffffffffffffffffffffffffffffffffffff021916908373ffffffffffffffffffffffffffffffffffffffff16021790555050506005805480602002602001604051908101604052809291908181526020016000905b828210156107e057838290600052602060002090600602016040518060c00160405290816000820154815260200160018201548152602001600282015481526020016003820180546106679061158e565b80601f01602080910402602001604051908101604052809291908181526020018280546106939061158e565b80156106e05780601f106106b5576101008083540402835291602001916106e0565b820191906000526020600020905b8154815290600101906020018083116106c357829003601f168201915b505050505081526020016004820180546106f99061158e565b80601f01602080910402602001604051908101604052809291908181526020018280546107259061158e565b80156107725780601f1061074757610100808354040283529160200191610772565b820191906000526020600020905b81548152906001019060200180831161075557829003601f168201915b505050505081526020016005820160009054906101000a900473ffffffffffffffffffffffffffffffffffffffff1673ffffffffffffffffffffffffffffffffffffffff1673ffffffffffffffffffffffffffffffffffffffff168152505081526020019060010190610616565b50505050905090565b60008054906101000a900473ffffffffffffffffffffffffffffffffffffffff1681565b60076020528060005260406000206000915090508060000180546108309061158e565b80601f016020809104026020016040519081016040528092919081815260200182805461085c9061158e565b80156108a95780601f1061087e576101008083540402835291602001916108a9565b820191906000526020600020905b81548152906001019060200180831161088c57829003601f168201915b5050505050908060010154908060020160009054906101000a900473ffffffffffffffffffffffffffffffffffffffff16908060020160149054906101000a900460ff16908060030154905085565b60008054906101000a900473ffffffffffffffffffffffffffffffffffffffff1673ffffffffffffffffffffffffffffffffffffffff163373ffffffffffffffffffffffffffffffffffffffff161461095057600080fd5b60006007600060066000815480929190610969906115f1565b919050558152602001908152602001600020905083816000019080519060200190610995929190610f25565b50828160010181905550818160020160006101000a81548173ffffffffffffffffffffffffffffffffffffffff021916908373ffffffffffffffffffffffffffffffffffffffff16021790555060008160020160146101000a81548160ff0219169083151502179055506000816003018190555050505050565b60048054610a1c9061158e565b80601f0160208091040260200160405190810160405280929190818152602001828054610a489061158e565b8015610a955780601f10610a6a57610100808354040283529160200191610a95565b820191906000526020600020905b815481529060010190602001808311610a7857829003601f168201915b505050505081565b60015481565b6000600654905090565b6001543411610abb57600080fd5b6001600860003373ffffffffffffffffffffffffffffffffffffffff1673ffffffffffffffffffffffffffffffffffffffff16815260200190815260200160002060006101000a81548160ff02191690831515021790555060026000815480929190610b26906115f1565b9190505550565b60008054906101000a900473ffffffffffffffffffffffffffffffffffffffff1673ffffffffffffffffffffffffffffffffffffffff163373ffffffffffffffffffffffffffffffffffffffff1614610b8557600080fd5b60006007600083815260200190815260200160002090508060020160149054906101000a900460ff1615610bb857600080fd5b60028054610bc691906114d3565b816003015411610bd557600080fd5b8060020160009054906101000a900473ffffffffffffffffffffffffffffffffffffffff1673ffffffffffffffffffffffffffffffffffffffff166108fc82600101549081150290604051600060405180830381858888f19350505050158015610c43573d6000803e3d6000fd5b5060018160020160146101000a81548160ff0219169083151502179055505050565b6000600760008381526020019081526020016000209050600860003373ffffffffffffffffffffffffffffffffffffffff1673ffffffffffffffffffffffffffffffffffffffff16815260200190815260200160002060009054906101000a900460ff16610cd257600080fd5b8060040160003373ffffffffffffffffffffffffffffffffffffffff1673ffffffffffffffffffffffffffffffffffffffff16815260200190815260200160002060009054906101000a900460ff1615610d2b57600080fd5b60018160040160003373ffffffffffffffffffffffffffffffffffffffff1673ffffffffffffffffffffffffffffffffffffffff16815260200190815260200160002060006101000a81548160ff021916908315150217905550806003016000815480929190610d9a906115f1565b91905055505050565b60025481565b60058181548110610db957600080fd5b9060005260206000209060060201600091509050806000015490806001015490806002015490806003018054610dee9061158e565b80601f0160208091040260200160405190810160405280929190818152602001828054610e1a9061158e565b8015610e675780601f10610e3c57610100808354040283529160200191610e67565b820191906000526020600020905b815481529060010190602001808311610e4a57829003601f168201915b505050505090806004018054610e7c9061158e565b80601f0160208091040260200160405190810160405280929190818152602001828054610ea89061158e565b8015610ef55780601f10610eca57610100808354040283529160200191610ef5565b820191906000526020600020905b815481529060010190602001808311610ed857829003601f168201915b5050505050908060050160009054906101000a900473ffffffffffffffffffffffffffffffffffffffff16905086565b828054610f319061158e565b90600052602060002090601f016020900481019282610f535760008555610f9a565b82601f10610f6c57805160ff1916838001178555610f9a565b82800160010185558215610f9a579182015b82811115610f99578251825591602001919060010190610f7e565b5b509050610fa79190610fab565b5090565b5b80821115610fc4576000816000905550600101610fac565b5090565b6000610fdb610fd68461143c565b611417565b905082815260208101848484011115610ff757610ff66116fb565b5b61100284828561154c565b509392505050565b6000813590506110198161171b565b92915050565b600082601f830112611034576110336116f6565b5b8135611044848260208601610fc8565b91505092915050565b60008135905061105c81611732565b92915050565b60008060006060848603121561107b5761107a611705565b5b600084013567ffffffffffffffff81111561109957611098611700565b5b6110a58682870161101f565b93505060206110b68682870161104d565b92505060406110c78682870161100a565b9150509250925092565b6000602082840312156110e7576110e6611705565b5b60006110f58482850161104d565b91505092915050565b600061110a8383611226565b905092915050565b61111b81611504565b82525050565b61112a81611504565b82525050565b600061113b8261147d565b61114581856114a0565b9350836020820285016111578561146d565b8060005b85811015611193578484038952815161117485826110fe565b945061117f83611493565b925060208a0199505060018101905061115b565b50829750879550505050505092915050565b6111ae81611516565b82525050565b60006111bf82611488565b6111c981856114b1565b93506111d981856020860161155b565b6111e28161170a565b840191505092915050565b60006111f882611488565b61120281856114c2565b935061121281856020860161155b565b61121b8161170a565b840191505092915050565b600060c08301600083015161123e60008601826112b6565b50602083015161125160208601826112b6565b50604083015161126460408601826112b6565b506060830151848203606086015261127c82826111b4565b9150506080830151848203608086015261129682826111b4565b91505060a08301516112ab60a0860182611112565b508091505092915050565b6112bf81611542565b82525050565b6112ce81611542565b82525050565b60006020820190506112e96000830184611121565b92915050565b600060208201905081810360008301526113098184611130565b905092915050565b6000602082019050818103600083015261132b81846111ed565b905092915050565b600060a082019050818103600083015261134d81886111ed565b905061135c60208301876112c5565b6113696040830186611121565b61137660608301856111a5565b61138360808301846112c5565b9695505050505050565b60006020820190506113a260008301846112c5565b92915050565b600060c0820190506113bd60008301896112c5565b6113ca60208301886112c5565b6113d760408301876112c5565b81810360608301526113e981866111ed565b905081810360808301526113fd81856111ed565b905061140c60a0830184611121565b979650505050505050565b6000611421611432565b905061142d82826115c0565b919050565b6000604051905090565b600067ffffffffffffffff821115611457576114566116c7565b5b6114608261170a565b9050602081019050919050565b6000819050602082019050919050565b600081519050919050565b600081519050919050565b6000602082019050919050565b600082825260208201905092915050565b600082825260208201905092915050565b600082825260208201905092915050565b60006114de82611542565b91506114e983611542565b9250826114f9576114f8611669565b5b828204905092915050565b600061150f82611522565b9050919050565b60008115159050919050565b600073ffffffffffffffffffffffffffffffffffffffff82169050919050565b6000819050919050565b82818337600083830152505050565b60005b8381101561157957808201518184015260208101905061155e565b83811115611588576000848401525b50505050565b600060028204905060018216806115a657607f821691505b602082108114156115ba576115b9611698565b5b50919050565b6115c98261170a565b810181811067ffffffffffffffff821117156115e8576115e76116c7565b5b80604052505050565b60006115fc82611542565b91507fffffffffffffffffffffffffffffffffffffffffffffffffffffffffffffffff82141561162f5761162e61163a565b5b600182019050919050565b7f4e487b7100000000000000000000000000000000000000000000000000000000600052601160045260246000fd5b7f4e487b7100000000000000000000000000000000000000000000000000000000600052601260045260246000fd5b7f4e487b7100000000000000000000000000000000000000000000000000000000600052602260045260246000fd5b7f4e487b7100000000000000000000000000000000000000000000000000000000600052604160045260246000fd5b600080fd5b600080fd5b600080fd5b600080fd5b6000601f19601f8301169050919050565b61172481611504565b811461172f57600080fd5b50565b61173b81611542565b811461174657600080fd5b5056fea26469706673582212208809dcdddec6474548ca159d3437e1f27e0803346503487c6a36419e4dd3822064736f6c63430008060033a26469706673582212202d8a699161b56747cd81b5f6ef7d60bec3b3774b880b00099fe3d2c629ac572464736f6c63430008060033",
  "linkReferences": {},
  "deployedLinkReferences": {}
}