{
  "_format": "hh-sol-artifact-1",
  "contractName": "ProjectFactory",
  "sourceName": "contracts/ProjectFactory.sol",
  "abi": [
    {
      "inputs": [
        {
          "internalType": "uint256",
          "name": "minimum",
          "type": "uint256"
        }
      ],
      "name": "CreateCampaign",
      "outputs": [],
      "stateMutability": "payable",
      "type": "function"
    },
    {
      "inputs": [
        {
          "internalType": "uint256",
          "name": "",
          "type": "uint256"
        }
      ],
      "name": "deployedCampaigns",
      "outputs": [
        {
          "internalType": "address",
          "name": "",
          "type": "address"
        }
      ],
      "stateMutability": "view",
      "type": "function"
    },
    {
      "inputs": [],
      "name": "getDeployedCampaigns",
      "outputs": [
        {
          "internalType": "address[]",
          "name": "",
          "type": "address[]"
        }
      ],
      "stateMutability": "view",
      "type": "function"
    }
  ],
  "bytecode": "0x608060405234801561001057600080fd5b50611026806100206000396000f3fe6080604052600436106100345760003560e01c8063339d50a5146100395780634acb9d4f146100765780639ab56857146100a1575b600080fd5b34801561004557600080fd5b50610060600480360381019061005b919061024d565b6100bd565b60405161006d919061031d565b60405180910390f35b34801561008257600080fd5b5061008b6100fc565b6040516100989190610338565b60405180910390f35b6100bb60048036038101906100b6919061024d565b61018a565b005b600081815481106100cd57600080fd5b906000526020600020016000915054906101000a900473ffffffffffffffffffffffffffffffffffffffff1681565b6060600080548060200260200160405190810160405280929190818152602001828054801561018057602002820191906000526020600020905b8160009054906101000a900473ffffffffffffffffffffffffffffffffffffffff1673ffffffffffffffffffffffffffffffffffffffff1681526020019060010190808311610136575b5050505050905090565b6000813360405161019a9061022b565b6101a592919061035a565b604051809103906000f0801580156101c1573d6000803e3d6000fd5b5090506000819080600181540180825580915050600190039060005260206000200160009091909190916101000a81548173ffffffffffffffffffffffffffffffffffffffff021916908373ffffffffffffffffffffffffffffffffffffffff1602179055505050565b610bdc8061041583390190565b600081359050610247816103fd565b92915050565b600060208284031215610263576102626103f8565b5b600061027184828501610238565b91505092915050565b60006102868383610292565b60208301905092915050565b61029b816103bc565b82525050565b6102aa816103bc565b82525050565b60006102bb82610393565b6102c581856103ab565b93506102d083610383565b8060005b838110156103015781516102e8888261027a565b97506102f38361039e565b9250506001810190506102d4565b5085935050505092915050565b610317816103ee565b82525050565b600060208201905061033260008301846102a1565b92915050565b6000602082019050818103600083015261035281846102b0565b905092915050565b600060408201905061036f600083018561030e565b61037c60208301846102a1565b9392505050565b6000819050602082019050919050565b600081519050919050565b6000602082019050919050565b600082825260208201905092915050565b60006103c7826103ce565b9050919050565b600073ffffffffffffffffffffffffffffffffffffffff82169050919050565b6000819050919050565b600080fd5b610406816103ee565b811461041157600080fd5b5056fe6080604052604051610bdc380380610bdc8339818101604052810190610025919061009d565b806000806101000a81548173ffffffffffffffffffffffffffffffffffffffff021916908373ffffffffffffffffffffffffffffffffffffffff16021790555081600181905550505061014c565b6000815190506100828161011e565b92915050565b60008151905061009781610135565b92915050565b600080604083850312156100b4576100b3610119565b5b60006100c285828601610088565b92505060206100d385828601610073565b9150509250929050565b60006100e8826100ef565b9050919050565b600073ffffffffffffffffffffffffffffffffffffffff82169050919050565b6000819050919050565b600080fd5b610127816100dd565b811461013257600080fd5b50565b61013e8161010f565b811461014957600080fd5b50565b610a818061015b6000396000f3fe6080604052600436106100705760003560e01c8063b309a91a1161004e578063b309a91a146100e7578063cc58b5ef146100f1578063d7d1bbdb1461010d578063e9f146a31461012957610070565b8063481c6a75146100755780638a9cfd55146100a0578063aaffadf3146100bc575b600080fd5b34801561008157600080fd5b5061008a610154565b6040516100979190610788565b60405180910390f35b6100ba60048036038101906100b591906106ce565b610178565b005b3480156100c857600080fd5b506100d161028f565b6040516100de91906107a3565b60405180910390f35b6100ef610295565b005b61010b6004803603810190610106919061073d565b610315565b005b6101276004803603810190610122919061073d565b61044d565b005b34801561013557600080fd5b5061013e61058b565b60405161014b91906107a3565b60405180910390f35b60008054906101000a900473ffffffffffffffffffffffffffffffffffffffff1681565b60008054906101000a900473ffffffffffffffffffffffffffffffffffffffff1673ffffffffffffffffffffffffffffffffffffffff163373ffffffffffffffffffffffffffffffffffffffff16146101d057600080fd5b600060046000600360008154809291906101e9906108f3565b919050558152602001908152602001600020905083816000019080519060200190610215929190610591565b50828160010181905550818160020160006101000a81548173ffffffffffffffffffffffffffffffffffffffff021916908373ffffffffffffffffffffffffffffffffffffffff16021790555060008160020160146101000a81548160ff0219169083151502179055506000816003018190555050505050565b60015481565b60015434116102a357600080fd5b6001600560003373ffffffffffffffffffffffffffffffffffffffff1673ffffffffffffffffffffffffffffffffffffffff16815260200190815260200160002060006101000a81548160ff0219169083151502179055506002600081548092919061030e906108f3565b9190505550565b60008054906101000a900473ffffffffffffffffffffffffffffffffffffffff1673ffffffffffffffffffffffffffffffffffffffff163373ffffffffffffffffffffffffffffffffffffffff161461036d57600080fd5b60006004600083815260200190815260200160002090508060020160149054906101000a900460ff16156103a057600080fd5b600280546103ae9190610814565b8160030154116103bd57600080fd5b8060020160009054906101000a900473ffffffffffffffffffffffffffffffffffffffff1673ffffffffffffffffffffffffffffffffffffffff166108fc82600101549081150290604051600060405180830381858888f1935050505015801561042b573d6000803e3d6000fd5b5060018160020160146101000a81548160ff0219169083151502179055505050565b6000600460008381526020019081526020016000209050600560003373ffffffffffffffffffffffffffffffffffffffff1673ffffffffffffffffffffffffffffffffffffffff16815260200190815260200160002060009054906101000a900460ff166104ba57600080fd5b8060040160003373ffffffffffffffffffffffffffffffffffffffff1673ffffffffffffffffffffffffffffffffffffffff16815260200190815260200160002060009054906101000a900460ff161561051357600080fd5b60018160040160003373ffffffffffffffffffffffffffffffffffffffff1673ffffffffffffffffffffffffffffffffffffffff16815260200190815260200160002060006101000a81548160ff021916908315150217905550806003016000815480929190610582906108f3565b91905055505050565b60025481565b82805461059d90610890565b90600052602060002090601f0160209004810192826105bf5760008555610606565b82601f106105d857805160ff1916838001178555610606565b82800160010185558215610606579182015b828111156106055782518255916020019190600101906105ea565b5b5090506106139190610617565b5090565b5b80821115610630576000816000905550600101610618565b5090565b6000610647610642846107e3565b6107be565b905082815260208101848484011115610663576106626109fd565b5b61066e848285610881565b509392505050565b60008135905061068581610a1d565b92915050565b600082601f8301126106a05761069f6109f8565b5b81356106b0848260208601610634565b91505092915050565b6000813590506106c881610a34565b92915050565b6000806000606084860312156106e7576106e6610a07565b5b600084013567ffffffffffffffff81111561070557610704610a02565b5b6107118682870161068b565b9350506020610722868287016106b9565b925050604061073386828701610676565b9150509250925092565b60006020828403121561075357610752610a07565b5b6000610761848285016106b9565b91505092915050565b61077381610845565b82525050565b61078281610877565b82525050565b600060208201905061079d600083018461076a565b92915050565b60006020820190506107b86000830184610779565b92915050565b60006107c86107d9565b90506107d482826108c2565b919050565b6000604051905090565b600067ffffffffffffffff8211156107fe576107fd6109c9565b5b61080782610a0c565b9050602081019050919050565b600061081f82610877565b915061082a83610877565b92508261083a5761083961096b565b5b828204905092915050565b600061085082610857565b9050919050565b600073ffffffffffffffffffffffffffffffffffffffff82169050919050565b6000819050919050565b82818337600083830152505050565b600060028204905060018216806108a857607f821691505b602082108114156108bc576108bb61099a565b5b50919050565b6108cb82610a0c565b810181811067ffffffffffffffff821117156108ea576108e96109c9565b5b80604052505050565b60006108fe82610877565b91507fffffffffffffffffffffffffffffffffffffffffffffffffffffffffffffffff8214156109315761093061093c565b5b600182019050919050565b7f4e487b7100000000000000000000000000000000000000000000000000000000600052601160045260246000fd5b7f4e487b7100000000000000000000000000000000000000000000000000000000600052601260045260246000fd5b7f4e487b7100000000000000000000000000000000000000000000000000000000600052602260045260246000fd5b7f4e487b7100000000000000000000000000000000000000000000000000000000600052604160045260246000fd5b600080fd5b600080fd5b600080fd5b600080fd5b6000601f19601f8301169050919050565b610a2681610845565b8114610a3157600080fd5b50565b610a3d81610877565b8114610a4857600080fd5b5056fea26469706673582212204481763e3cf39c7319f67a589b4232393422761c0495c6b5616e035f2cff402164736f6c63430008060033a26469706673582212203be0dfbc52b57d16759798792e56754773c7f06947a7a8518ed3748f1f695af864736f6c63430008060033",
  "linkReferences": {},
  "deployedLinkReferences": {}
}